{
  "contractName": "DiamondBase",
  "abi": [
    {
      "constant": false,
      "inputs": [
        {
          "name": "_newCEO",
          "type": "address"
        }
      ],
      "name": "setCEO",
      "outputs": [],
      "payable": false,
      "stateMutability": "nonpayable",
      "type": "function"
    },
    {
      "constant": false,
      "inputs": [],
      "name": "unpause",
      "outputs": [],
      "payable": false,
      "stateMutability": "nonpayable",
      "type": "function"
    },
    {
      "constant": true,
      "inputs": [],
      "name": "paused",
      "outputs": [
        {
          "name": "",
          "type": "bool"
        }
      ],
      "payable": false,
      "stateMutability": "view",
      "type": "function"
    },
    {
      "constant": false,
      "inputs": [
        {
          "name": "_newAdmin",
          "type": "address"
        }
      ],
      "name": "setAdmin",
      "outputs": [],
      "payable": false,
      "stateMutability": "nonpayable",
      "type": "function"
    },
    {
      "constant": false,
      "inputs": [],
      "name": "pause",
      "outputs": [],
      "payable": false,
      "stateMutability": "nonpayable",
      "type": "function"
    },
    {
      "constant": true,
      "inputs": [],
      "name": "CEO",
      "outputs": [
        {
          "name": "",
          "type": "address"
        }
      ],
      "payable": false,
      "stateMutability": "view",
      "type": "function"
    },
    {
      "constant": true,
      "inputs": [],
      "name": "admin",
      "outputs": [
        {
          "name": "",
          "type": "address"
        }
      ],
      "payable": false,
      "stateMutability": "view",
      "type": "function"
    },
    {
      "anonymous": false,
      "inputs": [
        {
          "indexed": false,
          "name": "from",
          "type": "address"
        },
        {
          "indexed": false,
          "name": "to",
          "type": "address"
        },
        {
          "indexed": false,
          "name": "diamondId",
          "type": "string"
        }
      ],
      "name": "Transfer",
      "type": "event"
    },
    {
      "anonymous": false,
      "inputs": [
        {
          "indexed": true,
          "name": "_diamondId",
          "type": "string"
        },
        {
          "indexed": false,
          "name": "_seller",
          "type": "address"
        },
        {
          "indexed": false,
          "name": "_sellerId",
          "type": "string"
        },
        {
          "indexed": false,
          "name": "_buyer",
          "type": "address"
        },
        {
          "indexed": false,
          "name": "_buyerId",
          "type": "string"
        },
        {
          "indexed": false,
          "name": "_usdPrice",
          "type": "uint256"
        },
        {
          "indexed": false,
          "name": "_cedexPrice",
          "type": "uint256"
        },
        {
          "indexed": false,
          "name": "timestamp",
          "type": "uint256"
        }
      ],
      "name": "TransactionHistory",
      "type": "event"
    }
  ],
  "bytecode": "0x60806040526000600160146101000a81548160ff02191690831515021790555034801561002b57600080fd5b506105d68061003b6000396000f300608060405260043610610083576000357c0100000000000000000000000000000000000000000000000000000000900463ffffffff16806327d7874c146100885780633f4ba83a146100cb5780635c975abb146100e2578063704b6c02146101115780638456cb5914610154578063a10885711461016b578063f851a440146101c2575b600080fd5b34801561009457600080fd5b506100c9600480360381019080803573ffffffffffffffffffffffffffffffffffffffff169060200190929190505050610219565b005b3480156100d757600080fd5b506100e06102f3565b005b3480156100ee57600080fd5b506100f7610386565b604051808215151515815260200191505060405180910390f35b34801561011d57600080fd5b50610152600480360381019080803573ffffffffffffffffffffffffffffffffffffffff169060200190929190505050610399565b005b34801561016057600080fd5b50610169610474565b005b34801561017757600080fd5b5061018061055f565b604051808273ffffffffffffffffffffffffffffffffffffffff1673ffffffffffffffffffffffffffffffffffffffff16815260200191505060405180910390f35b3480156101ce57600080fd5b506101d7610584565b604051808273ffffffffffffffffffffffffffffffffffffffff1673ffffffffffffffffffffffffffffffffffffffff16815260200191505060405180910390f35b6000809054906101000a900473ffffffffffffffffffffffffffffffffffffffff1673ffffffffffffffffffffffffffffffffffffffff163373ffffffffffffffffffffffffffffffffffffffff1614151561027457600080fd5b600073ffffffffffffffffffffffffffffffffffffffff168173ffffffffffffffffffffffffffffffffffffffff16141515156102b057600080fd5b806000806101000a81548173ffffffffffffffffffffffffffffffffffffffff021916908373ffffffffffffffffffffffffffffffffffffffff16021790555050565b6000809054906101000a900473ffffffffffffffffffffffffffffffffffffffff1673ffffffffffffffffffffffffffffffffffffffff163373ffffffffffffffffffffffffffffffffffffffff1614151561034e57600080fd5b600160149054906101000a900460ff16151561036957600080fd5b6000600160146101000a81548160ff021916908315150217905550565b600160149054906101000a900460ff1681565b6000809054906101000a900473ffffffffffffffffffffffffffffffffffffffff1673ffffffffffffffffffffffffffffffffffffffff163373ffffffffffffffffffffffffffffffffffffffff161415156103f457600080fd5b600073ffffffffffffffffffffffffffffffffffffffff168173ffffffffffffffffffffffffffffffffffffffff161415151561043057600080fd5b80600160006101000a81548173ffffffffffffffffffffffffffffffffffffffff021916908373ffffffffffffffffffffffffffffffffffffffff16021790555050565b600160009054906101000a900473ffffffffffffffffffffffffffffffffffffffff1673ffffffffffffffffffffffffffffffffffffffff163373ffffffffffffffffffffffffffffffffffffffff16148061051c57506000809054906101000a900473ffffffffffffffffffffffffffffffffffffffff1673ffffffffffffffffffffffffffffffffffffffff163373ffffffffffffffffffffffffffffffffffffffff16145b151561052757600080fd5b600160149054906101000a900460ff1615151561054357600080fd5b60018060146101000a81548160ff021916908315150217905550565b6000809054906101000a900473ffffffffffffffffffffffffffffffffffffffff1681565b600160009054906101000a900473ffffffffffffffffffffffffffffffffffffffff16815600a165627a7a723058209910393527197a2919a0a171fd6792c9d210ae3a011be928db603cf023d5a1c20029",
  "source": "pragma solidity ^0.4.24;\n\n/*\n * @title String & slice utility library for Solidity contracts.\n * @author Nick Johnson <arachnid@notdot.net>\n *\n * @dev Functionality in this library is largely implemented using an\n *      abstraction called a 'slice'. A slice represents a part of a string -\n *      anything from the entire string to a single character, or even no\n *      characters at all (a 0-length slice). Since a slice only has to specify\n *      an offset and a length, copying and manipulating slices is a lot less\n *      expensive than copying and manipulating the strings they reference.\n *\n *      To further reduce gas costs, most functions on slice that need to return\n *      a slice modify the original one instead of allocating a new one; for\n *      instance, `s.split(\".\")` will return the text up to the first '.',\n *      modifying s to only contain the remainder of the string after the '.'.\n *      In situations where you do not want to modify the original slice, you\n *      can make a copy first with `.copy()`, for example:\n *      `s.copy().split(\".\")`. Try and avoid using this idiom in loops; since\n *      Solidity has no memory management, it will result in allocating many\n *      short-lived slices that are later discarded.\n *\n *      Functions that return two slices come in two versions: a non-allocating\n *      version that takes the second slice as an argument, modifying it in\n *      place, and an allocating version that allocates and returns the second\n *      slice; see `nextRune` for example.\n *\n *      Functions that have to copy string data will return strings rather than\n *      slices; these can be cast back to slices for further processing if\n *      required.\n *\n *      For convenience, some functions are provided with non-modifying\n *      variants that create a new slice and return both; for instance,\n *      `s.splitNew('.')` leaves s unmodified, and returns two values\n *      corresponding to the left and right parts of the string.\n */\n\nlibrary strings {\n    struct slice {\n        uint _len;\n        uint _ptr;\n    }\n\n    function memcpy(uint dest, uint src, uint len) private pure {\n        // Copy word-length chunks while possible\n        for(; len >= 32; len -= 32) {\n            assembly {\n                mstore(dest, mload(src))\n            }\n            dest += 32;\n            src += 32;\n        }\n\n        // Copy remaining bytes\n        uint mask = 256 ** (32 - len) - 1;\n        assembly {\n            let srcpart := and(mload(src), not(mask))\n            let destpart := and(mload(dest), mask)\n            mstore(dest, or(destpart, srcpart))\n        }\n    }\n\n    /*\n     * @dev Returns a slice containing the entire string.\n     * @param self The string to make a slice from.\n     * @return A newly allocated slice containing the entire string.\n     */\n    function toSlice(string memory self) internal pure returns (slice memory) {\n        uint ptr;\n        assembly {\n            ptr := add(self, 0x20)\n        }\n        return slice(bytes(self).length, ptr);\n    }\n\n    /*\n     * @dev Returns the length of a null-terminated bytes32 string.\n     * @param self The value to find the length of.\n     * @return The length of the string, from 0 to 32.\n     */\n    function len(bytes32 self) internal pure returns (uint) {\n        uint ret;\n        if (self == 0)\n            return 0;\n        if (self & 0xffffffffffffffffffffffffffffffff == 0) {\n            ret += 16;\n            self = bytes32(uint(self) / 0x100000000000000000000000000000000);\n        }\n        if (self & 0xffffffffffffffff == 0) {\n            ret += 8;\n            self = bytes32(uint(self) / 0x10000000000000000);\n        }\n        if (self & 0xffffffff == 0) {\n            ret += 4;\n            self = bytes32(uint(self) / 0x100000000);\n        }\n        if (self & 0xffff == 0) {\n            ret += 2;\n            self = bytes32(uint(self) / 0x10000);\n        }\n        if (self & 0xff == 0) {\n            ret += 1;\n        }\n        return 32 - ret;\n    }\n\n    /*\n     * @dev Returns a slice containing the entire bytes32, interpreted as a\n     *      null-terminated utf-8 string.\n     * @param self The bytes32 value to convert to a slice.\n     * @return A new slice containing the value of the input argument up to the\n     *         first null.\n     */\n    function toSliceB32(bytes32 self) internal pure returns (slice memory ret) {\n        // Allocate space for `self` in memory, copy it there, and point ret at it\n        assembly {\n            let ptr := mload(0x40)\n            mstore(0x40, add(ptr, 0x20))\n            mstore(ptr, self)\n            mstore(add(ret, 0x20), ptr)\n        }\n        ret._len = len(self);\n    }\n\n    /*\n     * @dev Returns a new slice containing the same data as the current slice.\n     * @param self The slice to copy.\n     * @return A new slice containing the same data as `self`.\n     */\n    function copy(slice memory self) internal pure returns (slice memory) {\n        return slice(self._len, self._ptr);\n    }\n\n    /*\n     * @dev Copies a slice to a new string.\n     * @param self The slice to copy.\n     * @return A newly allocated string containing the slice's text.\n     */\n    function toString(slice memory self) internal pure returns (string memory) {\n        string memory ret = new string(self._len);\n        uint retptr;\n        assembly { retptr := add(ret, 32) }\n\n        memcpy(retptr, self._ptr, self._len);\n        return ret;\n    }\n\n    /*\n     * @dev Returns the length in runes of the slice. Note that this operation\n     *      takes time proportional to the length of the slice; avoid using it\n     *      in loops, and call `slice.empty()` if you only need to know whether\n     *      the slice is empty or not.\n     * @param self The slice to operate on.\n     * @return The length of the slice in runes.\n     */\n    function len(slice memory self) internal pure returns (uint l) {\n        // Starting at ptr-31 means the LSB will be the byte we care about\n        uint ptr = self._ptr - 31;\n        uint end = ptr + self._len;\n        for (l = 0; ptr < end; l++) {\n            uint8 b;\n            assembly { b := and(mload(ptr), 0xFF) }\n            if (b < 0x80) {\n                ptr += 1;\n            } else if(b < 0xE0) {\n                ptr += 2;\n            } else if(b < 0xF0) {\n                ptr += 3;\n            } else if(b < 0xF8) {\n                ptr += 4;\n            } else if(b < 0xFC) {\n                ptr += 5;\n            } else {\n                ptr += 6;\n            }\n        }\n    }\n\n    /*\n     * @dev Returns true if the slice is empty (has a length of 0).\n     * @param self The slice to operate on.\n     * @return True if the slice is empty, False otherwise.\n     */\n    function empty(slice memory self) internal pure returns (bool) {\n        return self._len == 0;\n    }\n\n    /*\n     * @dev Returns a positive number if `other` comes lexicographically after\n     *      `self`, a negative number if it comes before, or zero if the\n     *      contents of the two slices are equal. Comparison is done per-rune,\n     *      on unicode codepoints.\n     * @param self The first slice to compare.\n     * @param other The second slice to compare.\n     * @return The result of the comparison.\n     */\n    function compare(slice memory self, slice memory other) internal pure returns (int) {\n        uint shortest = self._len;\n        if (other._len < self._len)\n            shortest = other._len;\n\n        uint selfptr = self._ptr;\n        uint otherptr = other._ptr;\n        for (uint idx = 0; idx < shortest; idx += 32) {\n            uint a;\n            uint b;\n            assembly {\n                a := mload(selfptr)\n                b := mload(otherptr)\n            }\n            if (a != b) {\n                // Mask out irrelevant bytes and check again\n                uint256 mask = uint256(-1); // 0xffff...\n                if(shortest < 32) {\n                  mask = ~(2 ** (8 * (32 - shortest + idx)) - 1);\n                }\n                uint256 diff = (a & mask) - (b & mask);\n                if (diff != 0)\n                    return int(diff);\n            }\n            selfptr += 32;\n            otherptr += 32;\n        }\n        return int(self._len) - int(other._len);\n    }\n\n    /*\n     * @dev Returns true if the two slices contain the same text.\n     * @param self The first slice to compare.\n     * @param self The second slice to compare.\n     * @return True if the slices are equal, false otherwise.\n     */\n    function equals(slice memory self, slice memory other) internal pure returns (bool) {\n        return compare(self, other) == 0;\n    }\n\n    /*\n     * @dev Extracts the first rune in the slice into `rune`, advancing the\n     *      slice to point to the next rune and returning `self`.\n     * @param self The slice to operate on.\n     * @param rune The slice that will contain the first rune.\n     * @return `rune`.\n     */\n    function nextRune(slice memory self, slice memory rune) internal pure returns (slice memory) {\n        rune._ptr = self._ptr;\n\n        if (self._len == 0) {\n            rune._len = 0;\n            return rune;\n        }\n\n        uint l;\n        uint b;\n        // Load the first byte of the rune into the LSBs of b\n        assembly { b := and(mload(sub(mload(add(self, 32)), 31)), 0xFF) }\n        if (b < 0x80) {\n            l = 1;\n        } else if(b < 0xE0) {\n            l = 2;\n        } else if(b < 0xF0) {\n            l = 3;\n        } else {\n            l = 4;\n        }\n\n        // Check for truncated codepoints\n        if (l > self._len) {\n            rune._len = self._len;\n            self._ptr += self._len;\n            self._len = 0;\n            return rune;\n        }\n\n        self._ptr += l;\n        self._len -= l;\n        rune._len = l;\n        return rune;\n    }\n\n    /*\n     * @dev Returns the first rune in the slice, advancing the slice to point\n     *      to the next rune.\n     * @param self The slice to operate on.\n     * @return A slice containing only the first rune from `self`.\n     */\n    function nextRune(slice memory self) internal pure returns (slice memory ret) {\n        nextRune(self, ret);\n    }\n\n    /*\n     * @dev Returns the number of the first codepoint in the slice.\n     * @param self The slice to operate on.\n     * @return The number of the first codepoint in the slice.\n     */\n    function ord(slice memory self) internal pure returns (uint ret) {\n        if (self._len == 0) {\n            return 0;\n        }\n\n        uint word;\n        uint length;\n        uint divisor = 2 ** 248;\n\n        // Load the rune into the MSBs of b\n        assembly { word:= mload(mload(add(self, 32))) }\n        uint b = word / divisor;\n        if (b < 0x80) {\n            ret = b;\n            length = 1;\n        } else if(b < 0xE0) {\n            ret = b & 0x1F;\n            length = 2;\n        } else if(b < 0xF0) {\n            ret = b & 0x0F;\n            length = 3;\n        } else {\n            ret = b & 0x07;\n            length = 4;\n        }\n\n        // Check for truncated codepoints\n        if (length > self._len) {\n            return 0;\n        }\n\n        for (uint i = 1; i < length; i++) {\n            divisor = divisor / 256;\n            b = (word / divisor) & 0xFF;\n            if (b & 0xC0 != 0x80) {\n                // Invalid UTF-8 sequence\n                return 0;\n            }\n            ret = (ret * 64) | (b & 0x3F);\n        }\n\n        return ret;\n    }\n\n    /*\n     * @dev Returns the keccak-256 hash of the slice.\n     * @param self The slice to hash.\n     * @return The hash of the slice.\n     */\n    function keccak(slice memory self) internal pure returns (bytes32 ret) {\n        assembly {\n            ret := keccak256(mload(add(self, 32)), mload(self))\n        }\n    }\n\n    /*\n     * @dev Returns true if `self` starts with `needle`.\n     * @param self The slice to operate on.\n     * @param needle The slice to search for.\n     * @return True if the slice starts with the provided text, false otherwise.\n     */\n    function startsWith(slice memory self, slice memory needle) internal pure returns (bool) {\n        if (self._len < needle._len) {\n            return false;\n        }\n\n        if (self._ptr == needle._ptr) {\n            return true;\n        }\n\n        bool equal;\n        assembly {\n            let length := mload(needle)\n            let selfptr := mload(add(self, 0x20))\n            let needleptr := mload(add(needle, 0x20))\n            equal := eq(keccak256(selfptr, length), keccak256(needleptr, length))\n        }\n        return equal;\n    }\n\n    /*\n     * @dev If `self` starts with `needle`, `needle` is removed from the\n     *      beginning of `self`. Otherwise, `self` is unmodified.\n     * @param self The slice to operate on.\n     * @param needle The slice to search for.\n     * @return `self`\n     */\n    function beyond(slice memory self, slice memory needle) internal pure returns (slice memory) {\n        if (self._len < needle._len) {\n            return self;\n        }\n\n        bool equal = true;\n        if (self._ptr != needle._ptr) {\n            assembly {\n                let length := mload(needle)\n                let selfptr := mload(add(self, 0x20))\n                let needleptr := mload(add(needle, 0x20))\n                equal := eq(keccak256(selfptr, length), keccak256(needleptr, length))\n            }\n        }\n\n        if (equal) {\n            self._len -= needle._len;\n            self._ptr += needle._len;\n        }\n\n        return self;\n    }\n\n    /*\n     * @dev Returns true if the slice ends with `needle`.\n     * @param self The slice to operate on.\n     * @param needle The slice to search for.\n     * @return True if the slice starts with the provided text, false otherwise.\n     */\n    function endsWith(slice memory self, slice memory needle) internal pure returns (bool) {\n        if (self._len < needle._len) {\n            return false;\n        }\n\n        uint selfptr = self._ptr + self._len - needle._len;\n\n        if (selfptr == needle._ptr) {\n            return true;\n        }\n\n        bool equal;\n        assembly {\n            let length := mload(needle)\n            let needleptr := mload(add(needle, 0x20))\n            equal := eq(keccak256(selfptr, length), keccak256(needleptr, length))\n        }\n\n        return equal;\n    }\n\n    /*\n     * @dev If `self` ends with `needle`, `needle` is removed from the\n     *      end of `self`. Otherwise, `self` is unmodified.\n     * @param self The slice to operate on.\n     * @param needle The slice to search for.\n     * @return `self`\n     */\n    function until(slice memory self, slice memory needle) internal pure returns (slice memory) {\n        if (self._len < needle._len) {\n            return self;\n        }\n\n        uint selfptr = self._ptr + self._len - needle._len;\n        bool equal = true;\n        if (selfptr != needle._ptr) {\n            assembly {\n                let length := mload(needle)\n                let needleptr := mload(add(needle, 0x20))\n                equal := eq(keccak256(selfptr, length), keccak256(needleptr, length))\n            }\n        }\n\n        if (equal) {\n            self._len -= needle._len;\n        }\n\n        return self;\n    }\n\n    // Returns the memory address of the first byte of the first occurrence of\n    // `needle` in `self`, or the first byte after `self` if not found.\n    function findPtr(uint selflen, uint selfptr, uint needlelen, uint needleptr) private pure returns (uint) {\n        uint ptr = selfptr;\n        uint idx;\n\n        if (needlelen <= selflen) {\n            if (needlelen <= 32) {\n                bytes32 mask = bytes32(~(2 ** (8 * (32 - needlelen)) - 1));\n\n                bytes32 needledata;\n                assembly { needledata := and(mload(needleptr), mask) }\n\n                uint end = selfptr + selflen - needlelen;\n                bytes32 ptrdata;\n                assembly { ptrdata := and(mload(ptr), mask) }\n\n                while (ptrdata != needledata) {\n                    if (ptr >= end)\n                        return selfptr + selflen;\n                    ptr++;\n                    assembly { ptrdata := and(mload(ptr), mask) }\n                }\n                return ptr;\n            } else {\n                // For long needles, use hashing\n                bytes32 hash;\n                assembly { hash := keccak256(needleptr, needlelen) }\n\n                for (idx = 0; idx <= selflen - needlelen; idx++) {\n                    bytes32 testHash;\n                    assembly { testHash := keccak256(ptr, needlelen) }\n                    if (hash == testHash)\n                        return ptr;\n                    ptr += 1;\n                }\n            }\n        }\n        return selfptr + selflen;\n    }\n\n    // Returns the memory address of the first byte after the last occurrence of\n    // `needle` in `self`, or the address of `self` if not found.\n    function rfindPtr(uint selflen, uint selfptr, uint needlelen, uint needleptr) private pure returns (uint) {\n        uint ptr;\n\n        if (needlelen <= selflen) {\n            if (needlelen <= 32) {\n                bytes32 mask = bytes32(~(2 ** (8 * (32 - needlelen)) - 1));\n\n                bytes32 needledata;\n                assembly { needledata := and(mload(needleptr), mask) }\n\n                ptr = selfptr + selflen - needlelen;\n                bytes32 ptrdata;\n                assembly { ptrdata := and(mload(ptr), mask) }\n\n                while (ptrdata != needledata) {\n                    if (ptr <= selfptr)\n                        return selfptr;\n                    ptr--;\n                    assembly { ptrdata := and(mload(ptr), mask) }\n                }\n                return ptr + needlelen;\n            } else {\n                // For long needles, use hashing\n                bytes32 hash;\n                assembly { hash := keccak256(needleptr, needlelen) }\n                ptr = selfptr + (selflen - needlelen);\n                while (ptr >= selfptr) {\n                    bytes32 testHash;\n                    assembly { testHash := keccak256(ptr, needlelen) }\n                    if (hash == testHash)\n                        return ptr + needlelen;\n                    ptr -= 1;\n                }\n            }\n        }\n        return selfptr;\n    }\n\n    /*\n     * @dev Modifies `self` to contain everything from the first occurrence of\n     *      `needle` to the end of the slice. `self` is set to the empty slice\n     *      if `needle` is not found.\n     * @param self The slice to search and modify.\n     * @param needle The text to search for.\n     * @return `self`.\n     */\n    function find(slice memory self, slice memory needle) internal pure returns (slice memory) {\n        uint ptr = findPtr(self._len, self._ptr, needle._len, needle._ptr);\n        self._len -= ptr - self._ptr;\n        self._ptr = ptr;\n        return self;\n    }\n\n    /*\n     * @dev Modifies `self` to contain the part of the string from the start of\n     *      `self` to the end of the first occurrence of `needle`. If `needle`\n     *      is not found, `self` is set to the empty slice.\n     * @param self The slice to search and modify.\n     * @param needle The text to search for.\n     * @return `self`.\n     */\n    function rfind(slice memory self, slice memory needle) internal pure returns (slice memory) {\n        uint ptr = rfindPtr(self._len, self._ptr, needle._len, needle._ptr);\n        self._len = ptr - self._ptr;\n        return self;\n    }\n\n    /*\n     * @dev Splits the slice, setting `self` to everything after the first\n     *      occurrence of `needle`, and `token` to everything before it. If\n     *      `needle` does not occur in `self`, `self` is set to the empty slice,\n     *      and `token` is set to the entirety of `self`.\n     * @param self The slice to split.\n     * @param needle The text to search for in `self`.\n     * @param token An output parameter to which the first token is written.\n     * @return `token`.\n     */\n    function split(slice memory self, slice memory needle, slice memory token) internal pure returns (slice memory) {\n        uint ptr = findPtr(self._len, self._ptr, needle._len, needle._ptr);\n        token._ptr = self._ptr;\n        token._len = ptr - self._ptr;\n        if (ptr == self._ptr + self._len) {\n            // Not found\n            self._len = 0;\n        } else {\n            self._len -= token._len + needle._len;\n            self._ptr = ptr + needle._len;\n        }\n        return token;\n    }\n\n    /*\n     * @dev Splits the slice, setting `self` to everything after the first\n     *      occurrence of `needle`, and returning everything before it. If\n     *      `needle` does not occur in `self`, `self` is set to the empty slice,\n     *      and the entirety of `self` is returned.\n     * @param self The slice to split.\n     * @param needle The text to search for in `self`.\n     * @return The part of `self` up to the first occurrence of `delim`.\n     */\n    function split(slice memory self, slice memory needle) internal pure returns (slice memory token) {\n        split(self, needle, token);\n    }\n\n    /*\n     * @dev Splits the slice, setting `self` to everything before the last\n     *      occurrence of `needle`, and `token` to everything after it. If\n     *      `needle` does not occur in `self`, `self` is set to the empty slice,\n     *      and `token` is set to the entirety of `self`.\n     * @param self The slice to split.\n     * @param needle The text to search for in `self`.\n     * @param token An output parameter to which the first token is written.\n     * @return `token`.\n     */\n    function rsplit(slice memory self, slice memory needle, slice memory token) internal pure returns (slice memory) {\n        uint ptr = rfindPtr(self._len, self._ptr, needle._len, needle._ptr);\n        token._ptr = ptr;\n        token._len = self._len - (ptr - self._ptr);\n        if (ptr == self._ptr) {\n            // Not found\n            self._len = 0;\n        } else {\n            self._len -= token._len + needle._len;\n        }\n        return token;\n    }\n\n    /*\n     * @dev Splits the slice, setting `self` to everything before the last\n     *      occurrence of `needle`, and returning everything after it. If\n     *      `needle` does not occur in `self`, `self` is set to the empty slice,\n     *      and the entirety of `self` is returned.\n     * @param self The slice to split.\n     * @param needle The text to search for in `self`.\n     * @return The part of `self` after the last occurrence of `delim`.\n     */\n    function rsplit(slice memory self, slice memory needle) internal pure returns (slice memory token) {\n        rsplit(self, needle, token);\n    }\n\n    /*\n     * @dev Counts the number of nonoverlapping occurrences of `needle` in `self`.\n     * @param self The slice to search.\n     * @param needle The text to search for in `self`.\n     * @return The number of occurrences of `needle` found in `self`.\n     */\n    function count(slice memory self, slice memory needle) internal pure returns (uint cnt) {\n        uint ptr = findPtr(self._len, self._ptr, needle._len, needle._ptr) + needle._len;\n        while (ptr <= self._ptr + self._len) {\n            cnt++;\n            ptr = findPtr(self._len - (ptr - self._ptr), ptr, needle._len, needle._ptr) + needle._len;\n        }\n    }\n\n    /*\n     * @dev Returns True if `self` contains `needle`.\n     * @param self The slice to search.\n     * @param needle The text to search for in `self`.\n     * @return True if `needle` is found in `self`, false otherwise.\n     */\n    function contains(slice memory self, slice memory needle) internal pure returns (bool) {\n        return rfindPtr(self._len, self._ptr, needle._len, needle._ptr) != self._ptr;\n    }\n\n    /*\n     * @dev Returns a newly allocated string containing the concatenation of\n     *      `self` and `other`.\n     * @param self The first slice to concatenate.\n     * @param other The second slice to concatenate.\n     * @return The concatenation of the two strings.\n     */\n    function concat(slice memory self, slice memory other) internal pure returns (string memory) {\n        string memory ret = new string(self._len + other._len);\n        uint retptr;\n        assembly { retptr := add(ret, 32) }\n        memcpy(retptr, self._ptr, self._len);\n        memcpy(retptr + self._len, other._ptr, other._len);\n        return ret;\n    }\n\n    /*\n     * @dev Joins an array of slices, using `self` as a delimiter, returning a\n     *      newly allocated string.\n     * @param self The delimiter to use.\n     * @param parts A list of slices to join.\n     * @return A newly allocated string containing all the slices in `parts`,\n     *         joined with `self`.\n     */\n    function join(slice memory self, slice[] memory parts) internal pure returns (string memory) {\n        if (parts.length == 0)\n            return \"\";\n\n        uint length = self._len * (parts.length - 1);\n        for(uint i = 0; i < parts.length; i++)\n            length += parts[i]._len;\n\n        string memory ret = new string(length);\n        uint retptr;\n        assembly { retptr := add(ret, 32) }\n\n        for(i = 0; i < parts.length; i++) {\n            memcpy(retptr, parts[i]._ptr, parts[i]._len);\n            retptr += parts[i]._len;\n            if (i < parts.length - 1) {\n                memcpy(retptr, self._ptr, self._len);\n                retptr += self._len;\n            }\n        }\n\n        return ret;\n    }\n}\n\n/**\n * @title SafeMath\n * @dev Math operations with safety checks that throw on error\n */\nlibrary SafeMath {\n\n    /**\n    * @dev Multiplies two numbers, throws on overflow.\n    */\n    function mul(uint256 a, uint256 b) internal pure returns (uint256) {\n        if (a == 0) {\n          return 0;\n        }\n        uint256 c = a * b;\n        assert(c / a == b);\n        return c;\n    }\n\n    /**\n    * @dev Integer division of two numbers, truncating the quotient.\n    */\n    function div(uint256 a, uint256 b) internal pure returns (uint256) {\n        // assert(b > 0); // Solidity automatically throws when dividing by 0\n        uint256 c = a / b;\n        // assert(a == b * c + a % b); // There is no case in which this doesn't hold\n        return c;\n    }\n\n    /**\n    * @dev Substracts two numbers, throws on overflow (i.e. if subtrahend is greater than minuend).\n    */\n    function sub(uint256 a, uint256 b) internal pure returns (uint256) {\n        assert(b <= a);\n        return a - b;\n    }\n\n    /**\n    * @dev Adds two numbers, throws on overflow.\n    */\n    function add(uint256 a, uint256 b) internal pure returns (uint256) {\n        uint256 c = a + b;\n        assert(c >= a);\n        return c;\n    }\n}\n\n\n/// @title Interface for contracts conforming to ERC-721: Non-Fungible Tokens\n/// @author Dieter Shirley <dete@axiomzen.co> (https://github.com/dete)\ncontract ERC721 {\n    function totalSupply() external view returns (uint256 total);\n    function balanceOf(address _owner) external view returns (uint256 balance);\n    function ownerOf(string _diamondId) public view returns (address owner);\n    function approve(address _to, string _diamondId) external;\n    function transfer(address _to, string _diamondId) external;\n    function transferFrom(address _from, address _to, string _diamondId) external;\n\n    // Events\n    event Transfer(address from, address to, string diamondId);\n    event Approval(address owner, address approved, string diamondId);\n}\n\ncontract DiamondAccessControl {\n    \n    address public CEO;\n    address public admin;\n    \n    bool public paused = false;\n\n    modifier onlyCEO() {\n        require(msg.sender == CEO);\n        _;\n    }\n\n    modifier onlyAdmin() {\n        require(msg.sender == admin);\n        _;\n    }\n    \n    /*** Pausable functionality adapted from OpenZeppelin ***/\n\n    /// @dev Modifier to allow actions only when the contract IS NOT paused\n    modifier whenNotPaused() {\n        require(!paused);\n        _;\n    }\n\n    /// @dev Modifier to allow actions only when the contract IS paused\n    modifier whenPaused {\n        require(paused);\n        _;\n    }\n    \n    modifier onlyAdminOrCEO() {\n        require(msg.sender == admin || msg.sender == CEO);\n        _;\n    }\n    \n    function setCEO(address _newCEO) external onlyCEO {\n        require(_newCEO != address(0));\n        CEO = _newCEO;\n    }\n\n    function setAdmin(address _newAdmin) external onlyCEO {\n        require(_newAdmin != address(0));\n        admin = _newAdmin;\n    }\n    \n    /// @dev Called by any \"C-level\" role to pause the contract. Used only when\n    ///  a bug or exploit is detected and we need to limit damage.\n    function pause() external onlyAdminOrCEO whenNotPaused {\n        paused = true;\n    }\n\n    /// @dev Unpauses the smart contract. Can only be called by the CEO, since\n    ///  one reason we may pause the contract is when admin account are\n    ///  compromised.\n    /// @notice This is public rather than external so it can be called by\n    ///  derived contracts.\n    function unpause() external onlyCEO whenPaused {\n        // can't unpause if contract was upgraded\n        paused = false;\n    }\n}\n\n/// @title Base contract for CryptoKitties. Holds all common structs, events and base variables.\n/// @author Axiom Zen (https://www.axiomzen.co)\n/// @dev See the KittyCore contract documentation to understand how the various contract facets are arranged.\ncontract DiamondBase is DiamondAccessControl {\n    \n    using SafeMath for uint256;\n    \n    event Transfer(address from, address to, string diamondId);\n    event TransactionHistory(  \n        string indexed _diamondId, \n        address _seller, \n        string _sellerId, \n        address _buyer, \n        string _buyerId, \n        uint256 _usdPrice, \n        uint256 _cedexPrice,\n        uint256 timestamp\n\n    );\n    \n    /*** DATA TYPE ***/\n    /// @dev The main Kitty struct. Every dimond is represented by a copy of this structure\n    struct Diamond {\n        string ownerId;\n        string status;\n        string gemCompositeScore;\n        string gemSubcategory;\n        string certificateURL;\n        string IPFS;\n        string custodianName;\n        string custodianLocation;\n        string photoURL;\n        string invoiceURL;\n        uint256 arrivalTime;\n        uint256 confirmationTime;\n        string additionalInfo;\n    }\n    \n    // variable to store total amount of diamonds\n    uint256 internal total;\n    \n    // Mapping for checking whether status of token is outside\n    mapping(string => bool) internal diamondOutside;\n    \n    // Mapping for checking the existence of token with such diamond ID\n    mapping(string => bool) internal diamondExists;\n    \n    // Mapping from adress to number of diamonds owned by this address\n    mapping(address => uint) internal balances;\n\n    // Mapping from diamond ID to owner address\n    mapping (string => address) internal diamondIdToOwner;\n\n    // Mapping from diamond ID to metadata\n    mapping(string => Diamond) internal diamondIdToMetadata;\n\n    // Mapping from diamond ID to an address that has been approved to call transferFrom()\n    mapping(string => address) internal diamondIdToApproved;\n     \n    function _createDiamond(\n        string _diamondId, \n        address _owner, \n        string _ownerId, \n        string _gemCompositeScore, \n        string _gemSubcategory, \n        string _certificateURL, \n        string _IPFS\n    )  \n        internal \n    {\n        Diamond memory diamond;\n        \n        diamond.status = \"Pending\";\n        diamond.ownerId = _ownerId;\n        diamond.gemCompositeScore = _gemCompositeScore;\n        diamond.gemSubcategory = _gemSubcategory;\n        diamond.certificateURL= _certificateURL;\n        diamond.IPFS = _IPFS;\n        \n        diamondIdToMetadata[_diamondId] = diamond;\n\n        _transfer(address(0), _owner, _diamondId);\n        total = total.add(1);\n        diamondExists[_diamondId] = true; \n    }\n    \n    function _internalTransfer(\n        string _diamondId, \n        address _seller, \n        string _sellerId, \n        address _buyer, \n        string _buyerId, \n        uint256 _usdPrice, \n        uint256 _cedexPrice\n    )   \n        internal \n    {\n        Diamond storage diamond = diamondIdToMetadata[_diamondId];\n        diamond.ownerId = _buyerId;\n        _transfer(_seller, _buyer, _diamondId);   \n        emit TransactionHistory(_diamondId, _seller, _sellerId, _buyer, _buyerId, _usdPrice, _cedexPrice, now);\n\n    }\n    \n     function _transfer(address _from, address _to, string _diamondId) internal {\n        if (_from != address(0)) {\n            balances[_from] = balances[_from].sub(1);\n        }\n        balances[_to] = balances[_to].add(1);\n        diamondIdToOwner[_diamondId] = _to;\n        delete diamondIdToApproved[_diamondId];\n        Transfer(_from, _to, _diamondId);\n    }\n\n    function _burn(string _diamondId) internal {\n        address _from = diamondIdToOwner[_diamondId];\n        balances[_from] = balances[_from].sub(1);\n        total = total.sub(1);\n        delete diamondIdToOwner[_diamondId];\n        delete diamondIdToMetadata[_diamondId];\n        delete diamondExists[_diamondId];\n        delete diamondIdToApproved[_diamondId];\n        delete diamondOutside[_diamondId];\n        emit Transfer(_from, address(0), _diamondId);\n    }\n    \n    function _isDiamondOutside(string _diamondId) internal view returns (bool) {\n        require(diamondExists[_diamondId]);\n        return diamondOutside[_diamondId];\n    }\n}\n\n\n/// @title The ontract that manages ownership, ERC-721 (draft) compliant.\ncontract DiamondBase721 is DiamondBase, ERC721 {\n    \n    function totalSupply() external view returns (uint256) {\n        return total;\n    }\n\n    \n    /**\n    * @dev Gets the balance of the specified address\n    * @param _owner address to query the balance of\n    * @return uint256 representing the amount owned by the passed address\n    */\n    function balanceOf(address _owner) external view returns (uint256) {\n        return balances[_owner];\n\n    }\n\n    /**\n    * @dev Gets the owner of the specified diamond ID\n    * @param _diamondId string ID of the diamond to query the owner of\n    * @return owner address currently marked as the owner of the given diamond ID\n    */\n    function ownerOf(string _diamondId) public view returns (address) {\n        require(diamondExists[_diamondId]);\n        return diamondIdToOwner[_diamondId];\n    }\n\n    function approve(address _to, string _diamondId) external whenNotPaused {\n        require(_isDiamondOutside(_diamondId));\n        require(msg.sender == ownerOf(_diamondId));\n        diamondIdToApproved[_diamondId] = _to;\n        emit Approval(msg.sender, _to, _diamondId);\n    }\n\n    /**\n    * @dev Transfers the ownership of a given diamond ID to another address\n    * @param _to address to receive the ownership of the given diamond ID\n    * @param _diamondId uint256 ID of the diamond to be transferred\n    */\n    function transfer(address _to, string _diamondId) external whenNotPaused {\n        require(_isDiamondOutside(_diamondId));\n        require(msg.sender == ownerOf(_diamondId));\n        require(_to != address(0));\n        require(_to != address(this));\n        require(_to != ownerOf(_diamondId));\n        _transfer(msg.sender, _to, _diamondId);\n    }\n\n    function transferFrom(address _from, address _to,  string _diamondId)\n        external \n        whenNotPaused \n    {\n        require(_isDiamondOutside(_diamondId));\n        require(_from == ownerOf(_diamondId));\n        require(_to != address(0));\n        require(_to != address(this));\n        require(_to != ownerOf(_diamondId));\n        require(diamondIdToApproved[_diamondId] == msg.sender);\n        _transfer(_from, _to, _diamondId);\n    }\n    \n}\n\n/// @dev The main contract, keeps track of diamonds.\ncontract DiamondCore is DiamondBase721 {\n    using strings for *;\n \n    /// @notice Creates the main Diamond smart contract instance.\n    constructor() public {\n        // the creator of the contract is the initial CEO\n        CEO = msg.sender;\n    }\n    \n    function createDiamond(\n        string _diamondId, \n        address _owner, \n        string _ownerId, \n        string _gemCompositeScore, \n        string _gemSubcategory, \n        string _certificateURL, \n        string _IPFS\n    ) \n        external \n        onlyAdminOrCEO \n        whenNotPaused \n    {\n        require(!diamondExists[_diamondId]);\n        require(_owner != address(0));\n        require(_owner != address(this));\n        _createDiamond( \n            _diamondId, \n            _owner, \n            _ownerId, \n            _gemCompositeScore, \n            _gemSubcategory, \n            _certificateURL, \n            _IPFS\n        );\n    }\n    \n    function updateDiamond(\n        string _diamondId, \n        string _custodianName, \n        string _custodianLocation, \n        string _photoURL, \n        string _invoiceURL, \n        uint256 _arrivalTime, \n        uint256 _confirmationTime, \n        string _additionalInfo\n    ) \n        external \n        onlyAdminOrCEO \n        whenNotPaused \n    {\n        require(!_isDiamondOutside(_diamondId));\n        \n        Diamond storage diamond = diamondIdToMetadata[_diamondId];\n        \n        diamond.status = \"Verified\";\n        diamond.custodianName = _custodianName;\n        diamond.custodianLocation = _custodianLocation;\n        diamond.photoURL = _photoURL;\n        diamond.invoiceURL = _invoiceURL;\n        diamond.arrivalTime = _arrivalTime;\n        diamond.confirmationTime = _confirmationTime;\n        diamond.additionalInfo = _additionalInfo;\n    }\n    \n    function internalTransfer(\n        string _diamondId, \n        address _seller, \n        string _sellerId, \n        address _buyer, \n        string _buyerId, \n        uint256 _usdPrice, \n        uint256 _cedexPrice\n    ) \n        external \n        onlyAdminOrCEO \n        whenNotPaused \n    {\n        require(!_isDiamondOutside(_diamondId));\n        require(_seller == ownerOf(_diamondId));\n        require(_buyer != address(0));\n        require(_buyer != address(this));\n        require(_buyer != ownerOf(_diamondId));\n        _internalTransfer(_diamondId, _seller, _sellerId, _buyer, _buyerId, _usdPrice, _cedexPrice);\n    }\n    \n    function burn(string _diamondId) external onlyAdminOrCEO whenNotPaused {\n        require(!_isDiamondOutside(_diamondId));\n        _burn(_diamondId);\n    }\n    \n    function withdraw() {\n        // TBD\n    }\n    \n    function reinstate() {\n        // TBD\n    }\n    \n    function getDiamond(string _diamondId) \n        external\n        view\n        returns(\n            address owner,\n            string diamondMetadata,\n            uint256 arrivalTime, \n            uint256 confirmationTime        \n        )\n    {\n        Diamond storage diamond = diamondIdToMetadata[_diamondId];\n        owner = diamondIdToOwner[_diamondId];\n    \n        var parts = new strings.slice[](11);\n\n        parts[0] = diamond.ownerId.toSlice();\n        parts[1] = diamond.status.toSlice();\n        parts[2] = diamond.gemCompositeScore.toSlice();\n        parts[3] = diamond.gemSubcategory.toSlice();\n        parts[4] = diamond.certificateURL.toSlice();\n        parts[5] = diamond.IPFS.toSlice();\n        parts[6] = diamond.custodianName.toSlice();\n        parts[7] = diamond.custodianLocation.toSlice();\n        parts[8] = diamond.photoURL.toSlice();\n        parts[9] = diamond.invoiceURL.toSlice();\n        parts[10] = diamond.additionalInfo.toSlice();\n                \n        diamondMetadata = \"\".toSlice().join(parts);\n        \n        arrivalTime = diamond.arrivalTime;\n        confirmationTime = diamond.confirmationTime;\n    }\n}",
  "sourcePath": "/home/administrator/TruffleProjects/diamondsmartcontract/diamondsmartcontract/contracts/DiamondToken.sol",
  "compiler": {
    "name": "solc",
    "version": "0.4.24+commit.e67f0147.Emscripten.clang"
  },
  "schemaVersion": "2.0.1",
  "updatedAt": "2018-09-12T16:17:11.971Z"
}